:100000000C942A000C9447000C9447000C94470071
:100010000C9447000C9447000C9447000C94470044
:100020000C9447000C9447000C9447000C94470034
:100030000C9447000C9447000C9447000C94470024
:100040000C9447000C9447000C9447000C94470014
:100050000C94470011241FBECFE5D8E0DEBFCDBF12
:1000600011E0A0E6B0E0E6E3F2E102C005900D92F7
:10007000A033B107D9F721E0A0E3B1E001C01D92A0
:10008000A834B207E1F70E9425070C9419090C94D3
:10009000000042E650E063E081E00E94AA064EE6DE
:1000A00050E061E082E00E94AA062FEF8DE399E420
:1000B000215080409040E1F700C000000C94A7065A
:1000C0008F929F92AF92BF92CF92DF92EF92FF9268
:1000D0001F93CF93DF938091470181115CC14FE75C
:1000E00050E061E081E00E94AA064EE850E061E045
:1000F00082E00E94AA0643E950E067E082E00E94A5
:10010000AA0648E950E06DE082E00E94AA06C1E03C
:10011000CC2309F460C00E94B3048093420184356B
:10012000B9F3833419F40E94770455C081538330A6
:1001300068F56FE081E00E949906809142010E947B
:10014000150680914201823339F0833351F08133B7
:1001500031F41092410103C081E080934101C2E378
:100160000AC082E0FACF8FE19EE40197F1F700C068
:100170000000C15041F00E94B304809342018334D7
:1001800091F70E9477040E94A70625C040E161E034
:1001900081E00E94B4064DE950E061E081E00E94F8
:1001A000AA069FEF29E688E1915020408040E1F7C0
:1001B00000C0000040E161E081E00E94B4064FE72A
:1001C00050E061E081E00E94AA066FE081E00E94B9
:1001D0009906C1E0A0CF4BEA50E061E081E00E94C7
:1001E000AA0680914101813099F020F08230F1F02F
:1001F000C0E029C048EB50E061E082E00E94AA061E
:100200004EEB50E06AE082E00E94AA06C1E01BC00B
:1002100045EC50E061E082E00E94AA064EEB50E01F
:100220006AE082E00E94AA06C2E00DC048EB50E0FE
:1002300061E082E00E94AA064BEC50E06AE082E0B6
:100240000E94AA06C3E0D1E02DC08153823090F114
:1002500040E161E081E00E94B4064DE950E061E0D8
:1002600081E00E94AA069FEF29E688E19150204094
:100270008040E1F700C0000040E161E081E00E94C1
:10028000B4064BEA50E061E081E00E94AA066DE00E
:1002900081E00E949906D1E00E94B304809342015C
:1002A000843519F4D111F8CF3FC0833471F60E9420
:1002B00077043AC06DE081E00E9499068091420186
:1002C0000E941506C23051F0C33099F0C13079F464
:1002D00080914201813331F481E007C08091420175
:1002E000813369F0823319F482E080934001C2E3E4
:1002F00011C080914201813379F38233C1F71092AA
:100300004001F5CF8FE19EE40197F1F700C00000B6
:10031000C15041F00E94B30480934201833491F7AD
:100320000E9477040E94A70680914001813049F025
:1003300028F0823061F442EE50E005C041ED50E01B
:1003400002C04AED50E061E082E00E94AA0680917E
:100350004101813099F050F08230D1F442EE50E00A
:1003600061E081E00E94AA0667E00FC041ED50E025
:1003700061E081E00E94AA066AE007C04AED50E011
:1003800061E081E00E94AA0668E081E00E9499068F
:1003900081E0809347010E94B30480934201843539
:1003A00009F499C290914501913009F07DC08B32DA
:1003B00009F47AC0982F9F7E9D3209F475C0909100
:1003C0004101913029F120F0923009F441C06AC016
:1003D00080538A3008F066C01092460110924501A1
:1003E00047E06AE081E00E94B406809140018130DC
:1003F00041F028F0823051F44BE067E004C048E05F
:1004000001C049E069E082E00E94B4066AE047C0AA
:100410008053823008F046C0109246011092450188
:100420004AE068E081E00E94B4068091400181309A
:1004300041F028F0823051F44BE067E004C048E01E
:1004400001C049E069E082E00E94B40668E027C08C
:100450008A3241F110924601109245014AE067E06C
:1004600081E00E94B40687E08093600081E480937D
:10047000610010924401109243018091400181304B
:1004800041F028F0823051F44BE067E004C048E0CE
:1004900001C049E069E082E00E94B40667E081E0C3
:1004A0000E9499061092460180914201833411F412
:1004B0000E947704809142018D3309F078C19091B8
:1004C0004501911174C181E080934601E0913101B1
:1004D000AE2FB0E0AE5CBE4F1C92E150E093300115
:1004E000809141018130B1F040F0823009F08DC03F
:1004F000FE2FC12CD12C76013FC082E391E00E94F7
:10050000CD0660933C0170933D0180933E01909332
:100510003F017BC0FE2FC12CD12C7601CE2FCF1BEB
:10052000F7FD6BC0AF2F0F2E000CBB0BAE5CBE4FA8
:100530002C9130E020533109032E000C440B550B55
:10054000A0E061E070E080E090E0AC1731F0660F71
:10055000771F881F991FAF5FF8CF0E94AE08C60EA5
:10056000D71EE81EF91EF150D9CF0E94AE08C60E64
:10057000D71EE81EF91EF150BE2FBF1BF7FD3DC070
:10058000CF2F0F2E000CDD0BCE5CDE4F288180EDCF
:10059000820F8A30B8F430E020533109032E000C6A
:1005A000440B550BA0E061E070E080E090E0BA17EA
:1005B000E1F2D4E0660F771F881F991FDA95D1F713
:1005C000AF5FF5CF8FEB820F8630A8F630E0275370
:1005D0003109032E000C440B550BA0E061E070E0E4
:1005E00080E090E0BA1709F2C4E0660F771F881F19
:1005F000991FCA95D1F7AF5FF5CFC0923C01D09259
:100600003D01E0923E01F0923F0180914001813036
:1006100091F020F0823009F44FC0C3C069E082E05D
:100620000E94990660913C0170913D0180913E01CC
:1006300090913F01B4C069E082E00E949906C090A9
:100640003C01D0903D01E0903E01F0903F019FEFD2
:10065000C916D104E104F104C1F0B8F0CFE0D0E054
:10066000D701C6010C2E04C0B695A795979587951E
:100670000A94D2F7BC01CD016170772788279927AA
:100680000E942A06219760F78CC0C7E0D0E0D7010E
:10069000C6010C2E04C0B695A795979587950A9428
:1006A000D2F7BC01CD0161707727882799270E9476
:1006B0002A06219760F775C067E082E00E949906DC
:1006C00040913C0150913D0160913E0170913F018C
:1006D0006A017B0190EFC922DD24EE24FF24C42FA0
:1006E000CF704F3F51056105710509F078F4C701DE
:1006F000B60154E096958795779567955A95D1F709
:100700006A3008F43FC087E3860F37C0DB01CA01B7
:100710008827907FAA27BB272CE0B695A7959795A9
:1007200087952A95D1F744275F7066277727852E0E
:10073000962EA72EBB24D82D44E0F694E794D794A8
:10074000C7944A95D1F71C2D8A3020F0895C0E940D
:10075000150604C0BC01CD010E942A06DA3028F03B
:1007600087E3880D0E94150604C0C501B4010E94EC
:100770002A061A3028F087E38C0D0E94150604C063
:10078000C701B6010E942A06CA3028F087E38C0F01
:100790000E94150606C06C2F70E080E090E00E9479
:1007A0002A061092310181E08093450194C0909116
:1007B0004601911190C090914101913051F018F093
:1007C0009230D9F088C090ED980F9A3008F083C02D
:1007D00005C090ED980F923008F07DC00E9415067C
:1007E00080913101E82FF0E0EE5CFE4F90914201E4
:1007F00090838F5F809331016EC02091430190ED13
:10080000980F213021F49A3010F0109243019A3061
:1008100058F41092430191E490936100E09131010A
:10082000F0E0EE5CFE4F808391ED980F9B3080F0FE
:100830008A3209F050C0109243011092440181E4C1
:1008400080936100809160008F5F809360002BC077
:100850008F3211F59091430191111EC041E06091DA
:10086000600081E00E94B4066091600081E00E9417
:100870009906809161000E941506809131018823BC
:1008800039F090914401913019F4815080933101F5
:1008900081E08093440107C0909160009F5F909336
:1008A00060000E941506809142018A32A1F0909169
:1008B00031018F3269F480916100E92FF0E0EE5C44
:1008C000FE4F80838F5F873409F481E48093610059
:1008D0009F5F90933101DF91CF911F91FF90EF9037
:1008E000DF90CF90BF90AF909F908F90089510921F
:1008F00047011092310187E08093600081E480938A
:1009000061001092460110924501109244010E942C
:10091000A7060C946000CF93DF93C0E0D0E0FE0107
:10092000E85FFE4F9081892F8F7396FD02C061E0D2
:1009300001C060E00E9412082196C330D10579F70A
:10094000DF91CF91089561E08CE00E94120861E090
:100950008DE00E94120861E08EE00E94120861E0C2
:100960008FE00C9412089F92AF92BF92CF92DF92C9
:10097000EF92FF920F931F93CF93DF939FE0C92EC7
:1009800091E0D92EC3E1D1E024E5F22EF601E19009
:100990006F0160E08E2D0E9412088BE0A82E81E08E
:1009A000B82E00E010E0F50191905F01892D0E94C2
:1009B0009108811115C0FE01E00FF11FF0808FE159
:1009C0009EE40197F1F700C00000892D0E94910874
:1009D0008823D9F3EFE1FEE43197F1F700C000007E
:1009E0000F5F1F4F04301105F1F661E08E2D0E945C
:1009F00012082496F1E0C332DF0741F68F2DDF9114
:100A0000CF911F910F91FF90EF90DF90CF90BF900B
:100A1000AF909F900895AF92BF92DF92EF92FF92B6
:100A20000F931F93CF93DF93982F9F70D92EC82FCA
:100A3000C295CF7060E081E00E94120889E2E82E42
:100A400081E0F82E570103E010E0D0E0BE01002E57
:100A500002C0759567950A94E2F76170F50182917D
:100A60005F010E9412080150110980F761E082E0E5
:100A70000E9412088FEC97E00197F1F700C0000088
:100A800060E082E00E941208EFECF7E03197F1F7A6
:100A900000C00000C3E0D0E00D2D10E0B8010C2E26
:100AA00002C0759567950A94E2F76170F70182912B
:100AB0007F010E941208219788F761E082E00E947E
:100AC00012088FEC97E00197F1F700C0000060E09A
:100AD00082E00E941208EFECF7E03197F1F700C0D6
:100AE0000000DF91CF911F910F91FF90EF90DF9069
:100AF000BF90AF900895AF92BF92DF92EF92FF92B6
:100B00000F931F93CF93DF93982F9F70D92EC82FE9
:100B1000C295CF7061E081E00E94120889E2E82E60
:100B200081E0F82E570103E010E0D0E0BE01002E76
:100B300002C0759567950A94E2F76170F50182919C
:100B40005F010E9412080150110980F761E082E004
:100B50000E9412088FEC97E00197F1F700C00000A7
:100B600060E082E00E941208EFECF7E03197F1F7C5
:100B700000C00000C3E0D0E00D2D10E0B8010C2E45
:100B800002C0759567950A94E2F76170F70182914A
:100B90007F010E941208219788F761E082E00E949D
:100BA00012088FEC97E00197F1F700C0000060E0B9
:100BB00082E00E941208EFECF7E03197F1F700C0F5
:100BC0000000DF91CF911F910F91FF90EF90DF9088
:100BD000BF90AF9008952FE788E391E021508040C7
:100BE0009040E1F700C0000082E00E940B0588E21F
:100BF0000E940B058FEC97E00197F1F700C0000011
:100C00008CE00E940B058FEC97E00197F1F700C094
:100C1000000081E00E940B058FE097E20197F1F759
:100C200000C0000086E00C940B050C947B050F932C
:100C30001F93CF938C01C0E0F801EC0FF11D808170
:100C4000882321F00E947B05CF5FF6CFCF911F91C3
:100C50000F9108954F925F926F927F92AF92BF92E1
:100C6000CF92DF92EF92FF921F93CF93DF93CDB796
:100C7000DEB764970FB6F894DEBF0FBECDBF6B0131
:100C80007C01611571058105910529F480E30E94BD
:100C90007B0510E02AC097FF0BC08DE20E947B0508
:100CA000F094E094D094C094C11CD11CE11CF11CC0
:100CB00010E09AE0492E512C612C712CAA24A394A7
:100CC000B12CAC0EBD1EA10EB11CC701B601A30113
:100CD00092010E94E008F501608369017A011F5FBB
:100CE000C114D104E104F10449F7115017FD0DC0FE
:100CF000E1E0F0E0EC0FFD1FE10FF11D17FDFA95AB
:100D00008081805D0E947B05F0CF64960FB6F894D9
:100D1000DEBF0FBECDBFDF91CF911F91FF90EF904F
:100D2000DF90CF90BF90AF907F906F905F904F908B
:100D30000895813021F48FEF860F806805C08230DE
:100D400029F48FEF860F806C0C940B05089581E0D9
:100D50000C940B05CF93DF93EA010E949906CE0114
:100D6000DF91CF910C9417060F931F93CF93DF93CE
:100D7000D82F162F042F0E949906C0E0C01729F023
:100D800080E20E947B05CF5FF9CF612F8D2FDF912D
:100D9000CF911F910F910C949906CF92DF92EF9211
:100DA000FF921F93CF93DF93EC011881F1E01D3286
:100DB00009F0F0E060E070E0CB01DE01AF0FB11DA3
:100DC000EC91EE23C9F020ED2E0F2A3098F4AAE022
:100DD000B0E09B01AC010E94FF084E2F50E09A0149
:100DE000205331096901330FEE08FF086C0D7D1D9A
:100DF0008E1D9F1DFF5FE1CF1D3239F490958095C8
:100E0000709561957F4F8F4F9F4FDF91CF911F91CD
:100E1000FF90EF90DF90CF900895CF93DF93C0E0E5
:100E2000D0E0FE01E75DFE4F9081892F8F7396FF22
:100E300002C060E001C061E00E9412082196C73044
:100E4000D10579F7DF91CF9108950E9434070E9470
:100E50000D070E948B040E94EB050E94A3040E94D0
:100E600049000E946000FDCFE8EEF0E040E081E044
:100E700090E05191342F369536953695242F277072
:100E8000513009F443C020F0523009F482C0C5C08B
:100E9000323001F1333061F1313071F05AB3BC01BD
:100EA00002C0660F771F2A95E2F79B01352F322B80
:100EB0003ABB3BB320953DC057B3BC0102C0660F9F
:100EC000771F2A95E2F79B01352F322B37BB38B3BA
:100ED00020953EC054B3BC0102C0660F771F2A950F
:100EE000E2F79B01352F322B34BB35B320953FC041
:100EF00051B3BC0102C0660F771F2A95E2F79B0130
:100F0000352F322B31BB32B3209541C0323011F135
:100F1000333081F1313079F05AB3BC0102C0660F31
:100F2000771F2A95E2F79B012095352F32233ABB94
:100F30003BB3232342C057B3BC0102C0660F771FE7
:100F40002A95E2F79B012095352F322337BB38B322
:100F5000232343C054B3BC0102C0660F771F2A95F8
:100F6000E2F79B012095352F322334BB35B3232381
:100F700025BB53C051B3BC0102C0660F771F2A9531
:100F8000E2F79B012095352F322331BB32B3232367
:100F900043C0323021F1333089F1313081F05AB31E
:100FA000BC0102C0660F771F2A95E2F79B01362F1E
:100FB000309535233ABB3BB3232B2BBB2EC057B305
:100FC000BC0102C0660F771F2A95E2F79B01362FFE
:100FD0003095352337BB38B3232B28BB1EC054B301
:100FE000BC0102C0660F771F2A95E2F79B01362FDE
:100FF0003095352334BB35B3232BBACF51B3BC0165
:1010000002C0660F771F2A95E2F79B01362F3095B5
:10101000352331BB32B3232B22BB4F5F403209F063
:1010200028CF0895982F969596959695877061305C
:10103000C1F5913091F028F09230D9F0933029F138
:1010400008954BB321E030E0B90102C0660F771F6D
:101050008A95E2F7CB01842B38C048B321E030E019
:10106000B90102C0660F771F8A95E2F7CB01842B86
:101070003AC045B321E030E0B90102C0660F771FE6
:101080008A95E2F7CB01842B3CC042B321E030E0EB
:10109000B90102C0660F771F8A95E2F7CB01842B56
:1010A0003EC09130A1F028F09230F9F0933059F120
:1010B00008954BB321E030E0B90102C0660F771FFD
:1010C0008A95E2F7CB01809584238BBB089548B3C2
:1010D00021E030E0B90102C0660F771F8A95E2F780
:1010E000CB018095842388BB089545B321E030E08F
:1010F000B90102C0660F771F8A95E2F7CB01809590
:10110000842385BB089542B321E030E0B90102C0D9
:10111000660F771F8A95E2F7CB018095842382BB07
:101120000895282F2770869586958695813049F0F9
:1011300030F0823041F0833079F480B305C089B358
:1011400003C086B301C083B390E002C09595879534
:101150002A95E2F78170089580E00895DB018F936E
:101160009F930E94FF08BF91AF91A29F800D911D98
:10117000A39F900DB29F900D11240895A1E21A2E05
:10118000AA1BBB1BFD010DC0AA1FBB1FEE1FFF1F2B
:10119000A217B307E407F50720F0A21BB30BE40B7B
:1011A000F50B661F771F881F991F1A9469F76095C2
:1011B0007095809590959B01AC01BD01CF0108957C
:1011C000052E97FB1EF400940E94F70857FD07D0E8
:1011D0000E94BE0807FC03D04EF40C94F70850950B
:1011E0004095309521953F4F4F4F5F4F0895909513
:1011F0008095709561957F4F8F4F9F4F08950E9406
:101200000A09A59F900DB49F900DA49F800D911D7C
:1012100011240895A29FB001B39FC001A39F700D38
:10122000811D1124911DB29F700D811D1124911DEE
:061230000895F894FFCFC1
:1012360007413C3C57454C434F4D453E3E004E759D
:101246006D62657220436F6E7665727465720043D7
:101256006F6E766572742046726F6D3A2000314467
:101266004543003242494E00334845580057726F95
:101276006E6720456E747279212100436F6E766524
:10128600727420546F3A2000312E42494E00322E9D
:101296004845584100312E44454300322E444543CB
:1012A60000444543494D414C3A0042494E4152594A
:1012B6003A00484558413A0000000000000000008E
:1012C6000000000000000000000000000202020210
:1012D60000000202020201011415001A1B1C1D0C5B
:1012E6000D0E0F3738392F3435362A3132332D4328
:1012F600303D2B020103040506494A4B4C4D4E4F27
:00000001FF
